:020000040800F2
:100000000000022089A40008812800088328000835
:100010009128000893280008952800080000000097
:10002000000000000000000000000000216D00083A
:100030009728000800000000C16D0008256E000828
:10004000D9A40008D9A40008D9A40008D9A400089C
:10005000D9A40008D9A40008D9A40008D9A400088C
:10006000D9A4000899280008A3280008D9A40008EA
:10007000D9A40008D9A40008D9A40008D9A400086C
:10008000D9A40008D9A40008D9A40008D9A400085C
:10009000AD280008D9A40008D9A40008BD2800088C
:1000A000D9A40008D9A40008D9A40008D9A400083C
:1000B000D5280008D9A40008D9A40008D9A40008AC
:1000C000D9A40008D9A40008D9A40008D9A400081C
:1000D000D9A40008E5280008D9A40008F5280008DC
:1000E000D9A40008D9A40008D9A40008D9A40008FC
:1000F000D9A40008D9A40008D9A40008D9A40008EC
:10010000D9A40008D9A40008D9A40008D9A40008DB
:10011000D9A40008D9A40008D9A40008D9A40008CB
:10012000D9A4000805290008D9A40008D9A400080A
:10013000D9A40008D9A40008D9A40008D9A40008AB
:1001400015290008D9A40008D9A40008D9A40008DA
:1001500025290008352900084529000855290008E7
:10016000D9A40008D9A40008D9A40008D9A400087B
:10017000D9A40008D9A40008D9A4000800000000F0
:08018000D9A40008D9A400086D
:10019000830730B547D0541E002A3ED0CAB203466A
:1001A00001E0013C39D303F8012B9D07F9D1032C61
:1001B0002CD9CDB205EB05250F2C05EB054535D91E
:1001C000A4F1100222F00F0C03F1100EE6444FEAE6
:1001D000121C1A46C2E90055C2E902551032724596
:1001E000F8D10CF1010214F00C0F03EB021204F031
:1001F0000F0C13D0ACF1040323F0030304331344B6
:1002000042F8045B9342FBD10CF003042CB1C9B259
:100210001C4403F8011BA342FBD130BD64461346C6
:10022000002CF4D1F9E703461446C0E71A46A44669
:10023000E0E700BF014B1868704700BF00000020D6
:1002400070B50F4B0F4DAB42A3EB050607D0B610B0
:10025000002455F8043B01349847A642F9D80AF027
:100260003DFE094D094B5E1BAB424FEAA60606D088
:10027000002455F8043B01349847A642F9D870BDD4
:1002800084B8000884B8000884B8000888B800085A
:10029000844641EA000313F003036DD1403A41D391
:1002A00051F8043B40F8043B51F8043B40F8043B50
:1002B00051F8043B40F8043B51F8043B40F8043B40
:1002C00051F8043B40F8043B51F8043B40F8043B30
:1002D00051F8043B40F8043B51F8043B40F8043B20
:1002E00051F8043B40F8043B51F8043B40F8043B10
:1002F00051F8043B40F8043B51F8043B40F8043B00
:1003000051F8043B40F8043B51F8043B40F8043BEF
:1003100051F8043B40F8043B51F8043B40F8043BDF
:10032000403ABDD2303211D351F8043B40F8043B7F
:1003300051F8043B40F8043B51F8043B40F8043BBF
:1003400051F8043B40F8043B103AEDD20C3205D38F
:1003500051F8043B40F8043B043AF9D2043208D087
:10036000D2071CBF11F8013B00F8013B01D30B88F9
:1003700003806046704700BF082A13D38B078DD0D7
:1003800010F003038AD0C3F10403D21ADB071CBFA9
:1003900011F8013B00F8013B80D331F8023B20F813
:1003A000023B7BE7043AD9D3013A11F8013B00F84C
:1003B000013BF9D20B7803704B7843708B788370D4
:1003C0006046704708B52DED028BB0EE408A00F014
:1003D00035F8B4EE488AF1EE10FAF0EE408A0AD60B
:1003E000B0EE480A00F01CF8F7EE007AB4EEE70A27
:1003F000F1EE10FA04DCB0EE680ABDEC028B08BD29
:10040000FFF718FFBDEC028B034621221A60024859
:10041000BDE8084000F00CB8F8AF000800F00AB9D9
:1004200010EE103A23F0004300EE103A704700BF80
:100430009FED010A704700BF0000C07F38B510EE85
:10044000105A25F00044B4F17E5F2DED048BF0EEE0
:10045000407A7FD077D8B4F17C5F0ED2B4F1485F98
:1004600080F092809FED637A30EE077AF7EE006AB3
:10047000B4EEE67AF1EE10FA62DCB0EE670AFFF74E
:10048000CFFFF7EE007A37EEC08AB6EE007A28EE9C
:10049000078ADFED596A9FED597A9FED596A9FED02
:1004A000595ADFED595ADFED598AE8EE076A9FED98
:1004B000587AA8EE067A9FED576AA6EE885AA7EEFC
:1004C000086A9FED557ADFED556AE5EE085AA6EE0B
:1004D000087AE5EE886AE7EE087AE6EE888AB0EEFA
:1004E000480AB0EE679A00F01BFA4D4B9C4268EE4A
:1004F000888A3AD810EE103A6FF30B0306EE903A62
:10050000A6EEE68A70EE267A88EE895AC8EE274A69
:100510009FED447ADFED447AB0EE006AA4EEC67A2D
:1005200030EE000AF0EE675A90EE057AE6EEC65A13
:1005300037EE657A37EEC70A002D01DCB1EE400ACE
:10054000BDEC048B38BDBDEC048B70EE407A87EEB9
:10055000A70A38BDBDEC048B9FED320A9FED337ABC
:1005600027EE800AA7EE870A38BD88EE896A9FEDDC
:10057000307ADFED2E7AA0EE060AF0EE006AA0EEE9
:10058000267A37EEC70AD7E720EE007ADFED1B6A3E
:100590009FED196ADFED1B5A9FED195ADFED1A4ADC
:1005A000A7EE266ABDEC048BE6EE075ADFED186A6B
:1005B0009FED186AE7EE056AE5EE874AA6EE876AC0
:1005C0009FED165ADFED145ADFED106AA4EE875A3C
:1005D000E6EE075AE5EE076AB7EE006AA5EE876A0F
:1005E00026EE877AC7EE066AE0EE267AB0EE670A54
:1005F00038BD00BFCAF24971047F4F3A08EF113885
:100600002EC69D3D461124BDA80A4E3EABAA2A3EE9
:10061000613330BF2D57014039D119C090B0A6BE0B
:100620009999793F2EBD3BB3DB0F493FDB0FC93FA3
:100630002EBD3B3310B582B0CDED010A019B23F0F6
:100640000042B2F1FF4FF0EE407A30D810EE100ABF
:1006500020F00041B1F1FF4F29D8B3F17E5F42D0C5
:100660009C1704F0020444EAD07431B37AB3B2F1B7
:10067000FF4F40D0B1F1FF4F29D0891AB1F1F45F9B
:100680004FEAE15234DA002B42DA3C3240DA9FED95
:10069000340A012C4ED0022C43D064B19FED317A44
:1006A000DFED317A30EE070A30EE670A03E09DEDA8
:1006B000017A37EE270A02B010BD022C10D09FED50
:1006C0002B7A032C08BFB0EE470A02B010BD9FED95
:1006D000280ADFED287A0028A8BFB0EE670AEAE70B
:1006E0009FED210AE7E702B0BDE8104000F048B8EE
:1006F0009FED200ACDE7B1F1FF4F04F1FF3420D088
:10070000022C26D81C4B03EB840393ED030AD2E79B
:100710009DED017A87EE870AFFF782FE00F030F840
:10072000B7E79FED107ADFED107A30EE070A37EE6B
:10073000C00AC0E710EE103A03F1004300EE103A91
:10074000B9E7022C08D80C4B03EB840393ED000AA5
:10075000B1E79FED030AAEE79FED080AABE700BFE4
:10076000000000002EBDBB33DB0F4940DB0F49C04A
:10077000DB0FC9BFDB0FC93F9CAF0008DB0F493F50
:1007800038B510EE105A25F00044B4F1A14FF0EE48
:10079000407A0DD3B4F1FF4F58D8DFED4F7A9FED7B
:1007A0004F7A002DCCBFB0EE470AB0EE670A38BDD5
:1007B0004B4B9C4259D8B4F1445F4AD34FF0FF32BF
:1007C00027EEA76A9FED475A9FED477ADFED475A1C
:1007D000DFED474A66EE066A531CA6EE857AE6EE22
:1007E000A54A9FED445ADFED445AA7EE265AE4EE9F
:1007F000A65A9FED427ADFED424AA5EE267AE5EE53
:10080000A64A9FED405ADFED405AA7EE265A9FEDCB
:100810003F7AA4EEA67AE5EE265A27EE267AA5EED2
:10082000867A27EE877A35D0394B03EB820393ED36
:10083000046AD3ED006A37EE467A002D37EE677A08
:1008400036EEC70AB3DAB1EE400A38BD30EE000A20
:1008500038BD9FED307A30EE077AF7EE006AB4EEDD
:10086000E67AF1EE10FAA9DD38BDFFF7D9FD2A4B83
:100870009C4212D8A3F5D0039C4223D8F0EE007A14
:10088000BFEE007AA0EE277A002230EE270AC7EEEC
:10089000007A95E737EEC70A38BD204B9C420BD84B
:1008A000F7EE087AB7EE007AA0EE277A022230EE51
:1008B000670AC0EE077A83E7BFEE007AC7EE007AD8
:1008C00003227DE7F7EE007A30EE677A30EE270AF2
:1008D0000122C7EE007A73E7DB0FC9BFDB0FC93F08
:1008E000FFFFDF3ED769853C59DA4B3D21A215BD9C
:1008F0006BF16EBD356B883D95879DBD6E2EBA3D03
:10090000388EE3BD2549123EABAAAA3ECDCC4CBEE3
:10091000B4AF0008CAF24971FFFF973FFFFF1B40C9
:10092000B1EEC00A704700BF81F0004102E000BF95
:1009300083F0004330B54FEA41044FEA430594EA9F
:10094000050F08BF90EA020F1FBF54EA000C55EADA
:10095000020C7FEA645C7FEA655C00F0E2804FEAAB
:100960005454D4EB5555B8BF6D420CDD2C4480EA8D
:10097000020281EA030382EA000083EA010180EABD
:10098000020281EA0303362D88BF30BD11F0004F0B
:100990004FEA01314FF4801C4CEA113102D0404241
:1009A00061EB410113F0004F4FEA03334CEA13337C
:1009B00002D0524263EB430394EA050F00F0A78094
:1009C000A4F10104D5F1200E0DDB02FA0EFC22FA8F
:1009D00005F2801841F1000103FA0EF2801843FA83
:1009E00005F359410EE0A5F120050EF1200E012A74
:1009F00003FA0EFC28BF4CF0020C43FA05F3C018B2
:100A000051EBE37101F0004507D54FF0000EDCF12A
:100A1000000C7EEB00006EEB0101B1F5801F1BD3D3
:100A2000B1F5001F0CD349085FEA30004FEA3C0CD7
:100A300004F101044FEA445212F5800F80F09A80CD
:100A4000BCF1004F08BF5FEA500C50F1000041EBD1
:100A5000045141EA050130BD5FEA4C0C404141EBD5
:100A60000101013C28BFB1F5801FE9D291F0000FD0
:100A700004BF01460020B1FA81F308BF2033A3F17F
:100A80000B03B3F120020CDA0C3208DD02F1140C76
:100A9000C2F10C0201FA0CF021FA02F10CE002F1B1
:100AA0001402D8BFC2F1200C01FA02F120FA0CFCAA
:100AB000DCBF41EA0C019040E41AA2BF01EB0451F3
:100AC000294330BD6FEA04041F3C1CDA0C340EDCF1
:100AD00004F11404C4F1200220FA04F001FA02F334
:100AE00040EA030021FA04F345EA030130BDC4F1F2
:100AF0000C04C4F1200220FA02F001FA04F340EAE7
:100B00000300294630BD21FA04F0294630BD94F097
:100B1000000F83F4801306BF81F480110134013D7E
:100B20004EE77FEA645C18BF7FEA655C29D094EAEF
:100B3000050F08BF90EA020F05D054EA000C04BF6D
:100B40001946104630BD91EA030F1EBF0021002058
:100B500030BD5FEA545C05D14000494128BF41F0F7
:100B6000004130BD14F580043CBF01F5801130BD5B
:100B700001F0004545F0FE4141F470014FF00000E6
:100B800030BD7FEA645C1ABF194610467FEA655C97
:100B90001CBF0B46024650EA013406BF52EA033539
:100BA00091EA030F41F4002130BD00BF90F0000F27
:100BB00004BF0021704730B54FF4806404F1320463
:100BC0004FF000054FF0000150E700BF90F0000F1C
:100BD00004BF0021704730B54FF4806404F1320443
:100BE00010F0004548BF40424FF000013EE700BF13
:100BF00042004FEAE2014FEA31014FEA02701FBFA3
:100C000012F07F4393F07F4F81F06051704732F0D4
:100C10007F4208BF704793F07F4F04BF41F400212B
:100C2000704730B54FF4607401F0004521F0004189
:100C30001CE700BF50EA010208BF704730B54FF013
:100C400000050AE050EA010208BF704730B511F014
:100C5000004502D5404261EB41014FF4806404F14C
:100C600032045FEA915C3FF4D8AE4FF003025FEAD2
:100C7000DC0C18BF03325FEADC0C18BF033202EB56
:100C8000DC02C2F1200300FA03FC20FA02F001FAB0
:100C900003FE40EA0E0021FA02F11444BDE600BF53
:100CA00070B54FF0FF0C4CF4E06C1CEA11541DBF02
:100CB0001CEA135594EA0C0F95EA0C0F00F0DEF8CD
:100CC0002C4481EA030621EA4C5123EA4C5350EAB2
:100CD000013518BF52EA033541F4801143F4801303
:100CE00038D0A0FB02CE4FF00005E1FB02E506F094
:100CF0000042E0FB03E54FF00006E1FB03569CF0E9
:100D0000000F18BF4EF0010EA4F1FF04B6F5007FEE
:100D100064F5407404D25FEA4E0E6D4146EB060660
:100D200042EAC62141EA55514FEAC52040EA5E50E9
:100D30004FEACE2EB4F1FD0C88BFBCF5E06F1ED893
:100D4000BEF1004F08BF5FEA500E50F1000041EBCA
:100D5000045170BD06F0004646EA010140EA020077
:100D600081EA0301B4EB5C04C2BFD4EB0C0541EA99
:100D7000045170BD41F480114FF0000E013C00F3AE
:100D8000AB8014F1360FDEBF002001F0004170BDD2
:100D9000C4F10004203C35DA0C341BDC04F11404EB
:100DA000C4F1200500FA05F320FA04F001FA05F277
:100DB00040EA020001F0004221F0004110EBD37044
:100DC00021FA04F642EB06015EEA430E08BF20EA70
:100DD000D37070BDC4F10C04C4F1200500FA04F313
:100DE00020FA05F001FA04F240EA020001F00041A5
:100DF00010EBD37041F100015EEA430E08BF20EA18
:100E0000D37070BDC4F1200500FA05F24EEA020E5F
:100E100020FA04F301FA05F243EA020321FA04F08E
:100E200001F0004121FA04F220EA020000EBD37045
:100E30005EEA430E08BF20EAD37070BD94F0000F45
:100E40000FD101F00046400041EB010111F4801F79
:100E500008BF013CF7D041EA060195F0000F18BF2A
:100E6000704703F00046520043EB030313F4801F66
:100E700008BF013DF7D043EA0603704794EA0C0F20
:100E80000CEA135518BF95EA0C0F0CD050EA410636
:100E900018BF52EA4306D1D181EA030101F00041B3
:100EA0004FF0000070BD50EA410606BF10461946DB
:100EB00052EA430619D094EA0C0F02D150EA0136E7
:100EC00013D195EA0C0F05D152EA03361CBF104628
:100ED00019460AD181EA030101F0004141F0FE41C7
:100EE00041F470014FF0000070BD41F0FE4141F44B
:100EF000780170BD70B54FF0FF0C4CF4E06C1CEA4B
:100F000011541DBF1CEA135594EA0C0F95EA0C0FFF
:100F100000F0A7F8A4EB050481EA030E52EA0335BA
:100F20004FEA013100F088804FEA03334FF08055DB
:100F300045EA131343EA12634FEA022245EA111508
:100F400045EA10654FEA00260EF000419D4208BFB9
:100F5000964244F1FD0404F5407402D25B084FEA66
:100F60003202B61A65EB03055B084FEA32024FF412
:100F700080104FF4002CB6EB020E75EB030E22BF6F
:100F8000B61A754640EA0C005B084FEA3202B6EB2F
:100F9000020E75EB030E22BFB61A754640EA5C00DE
:100FA0005B084FEA3202B6EB020E75EB030E22BF6E
:100FB000B61A754640EA9C005B084FEA3202B6EB6F
:100FC000020E75EB030E22BFB61A754640EADC002E
:100FD00055EA060E18D04FEA051545EA16754FEA90
:100FE00006164FEAC30343EA52734FEAC2025FEAAE
:100FF0001C1CC0D111F4801F0BD141EA00014FF03D
:1010000000004FF0004CB6E711F4801F04BF01430D
:101010000020B4F1FD0C88BFBCF5E06F3FF6AFAE29
:10102000B5EB030C04BFB6EB020C5FEA500C50F1B9
:10103000000041EB045170BD0EF0004E4EEA11313C
:1010400014EB5C04C2BFD4EB0C0541EA045170BD43
:1010500041F480114FF0000E013C90E645EA060E87
:101060008DE60CEA135594EA0C0F08BF95EA0C0FB5
:101070003FF43BAF94EA0C0F0AD150EA01347FF4FD
:1010800034AF95EA0C0F7FF425AF104619462CE7D4
:1010900095EA0C0F06D152EA03353FF4FDAE104637
:1010A000194622E750EA410618BF52EA43067FF488
:1010B000C5AE50EA41047FF40DAF52EA43057FF418
:1010C000EBAE12E74FEA4102B2F1E04324BFB3F5C1
:1010D000001CDCF1FE5C0DD901F0004C4FEAC002AF
:1010E0004CEA5070B2F1004F40EB830008BF20F093
:1010F0000100704711F0804F21D113F13872BCBF4D
:1011000001F00040704741F480114FEA5252C2F1A1
:101110001802C2F1200C10FA0CF320FA02F018BFEA
:1011200040F001004FEAC1234FEAD32303FA0CFC3D
:1011300040EA0C0023FA02F34FEA4303CCE77FEACC
:10114000625307D150EA01331EBF4FF0FE4040F416
:101150004000704701F0004040F0FE4040F40000C5
:10116000704700BF53B94AB9002908BF00281CBF07
:101170004FF0FF314FF0FF3000F00CB8ADF1080C2C
:101180006DE904CE09F05AFDDDF804E0DDE9022343
:1011900004B07047704700BF10B5054C237833B9D1
:1011A000044B13B10448AFF300800123237010BD3A
:1011B0005402002000000000DCAE000808B5034B1C
:1011C0001BB103490348AFF3008008BD00000000D5
:1011D00058020020DCAE000830B595B03022002166
:1011E00008A8FEF7D5FF0024039404940594069400
:1011F000079401941D4B1A6C42F080521A641B6CC8
:1012000003F080530193019B0294194B1A6842F436
:1012100080421A601B6803F480430293029B0923F7
:1012200008934FF48033099301230D9302250E9503
:101230004FF480030F9306231093A8231193129564
:101240000723139308A801F06DFE0F230393049561
:1012500005944FF4A05306934FF480530793052150
:1012600003A802F0A9F815B030BD00BF0038024055
:101270000070004008B502F0C5FCFFF7ADFF00F0BC
:101280004BF800F051FB00F0C3F900F0F9F900F061
:1012900077FA00F097FA00F0A3FB00F0CDFC00F025
:1012A000C5FF01F01BF801F04DF901F081F800F0E5
:1012B000B5FB00F0D1FB00F0E3FC00F025FF00F0EF
:1012C000C7FD01F0EBF801F023F901F059F9A8206E
:1012D00007F0DEFE4FF4487002F0C0FC074807F04C
:1012E0000FFC0028FAD107F0EFFD054805F0B8FF24
:1012F00000F04CF905F067FBFEE700BF7C0C002016
:101300007410002008B50368B3F1804F00D008BD09
:1013100002F092FCFBE770472DE9F0478EB0002405
:1013200009940A940B940C940D940094734B1A6BCB
:1013300042F002021A631A6B02F002020092009A53
:1013400001941A6B42F040021A631A6B02F04002D9
:101350000192019A02941A6B42F001021A631A6B0D
:1013600002F001020292029A03941A6B42F0080200
:101370001A631A6B02F008020392039A04941A6B20
:1013800042F004021A631A6B02F004020492049AF7
:1013900005941A6B42F480721A631A6B02F480721D
:1013A0000592059A06941A6B42F020021A631A6B92
:1013B00002F020020692069A07941A6B42F080020D
:1013C0001A631A6B02F080020792079A08941A6B4C
:1013D00042F010021A631B6B03F010030893089B82
:1013E000474F22464FF48071384602F0C1F9DFF8CA
:1013F000209101224021484602F0BAF9DFF8148119
:1014000001221021404602F0B3F93E4E012241F282
:101410000101304602F0ACF9C02309933A4B0A931C
:101420000B9409A9394802F0BBF84FF48073099373
:1014300001250A950B940C9409A9384602F0B0F8DE
:10144000402309930A950B950C9509A9484602F08B
:10145000A7F808230993DFF8C0A0CDF828A00B95C2
:1014600009A9484602F09CF809950A940B9509A928
:10147000404602F095F8102309930A950B954FF01A
:101480000209CDF8309009A9404602F089F83023CE
:101490000993CDF828A00B9509A9384602F080F8E9
:1014A0004FF4805309930A950B950C9509A9304682
:1014B00002F076F809950A950B95CDF8309009A9B8
:1014C000304602F06DF822460521092002F078FB33
:1014D000092002F085FB224605210A2002F070FB5C
:1014E0000A2002F07DFB22460521172002F068FB4E
:1014F000172002F075FB0EB0BDE8F08700380240FF
:1015000000080240000402400000111000200240C8
:1015100000180240000002400000211008B506F04B
:101520007DFC06F087FC012005F085FAF9E708B597
:1015300006F042FB06F04EFB052005F07CFAF9E7C9
:1015400008B54FF47A7005F076FA06F051FA06F015
:10155000A7FA022005F06FFAF9E70000034B0360D9
:10156000034B0B6080231360704700BFC40800204A
:10157000C4060020034B0360034B0B604FF48073E1
:1015800013607047700600207002002010B596B0FE
:101590001B4C0DF13C0CA646BEE80F00ACE80F005A
:1015A0009EE807008CE8070000210FA805F010FA5C
:1015B000144B18600DF1200C04F11C0EBEE80F0056
:1015C000ACE80F009EE807008CE80700002108A89F
:1015D00005F0FEF90C4B18600DF1040E04F1380C07
:1015E000BCE80F00AEE80F009CE807008EE807009B
:1015F000002101A805F0ECF9044B186016B010BDED
:10160000F4AE0008180900201C0900202009002061
:1016100000B585B00023009301930293039315480E
:10162000154A02604FF40032426083600361037622
:1016300080F82030C362114A8262C3600122C26115
:1016400080F83030426101F085FA68B910230093C8
:1016500001230193002302936946064801F098FB99
:1016600028B905B05DF804FBFFF755FEEEE7FFF77C
:1016700052FEF6E76C090020002001400100000F37
:1016800000B585B00023009301930293039315489E
:10169000154A02604FF400324260836003610376B2
:1016A00080F82030C362114A8262C3600122C261A5
:1016B00080F83030426101F04DFA68B90823009398
:1016C00001230193002302936946064801F060FB61
:1016D00028B905B05DF804FBFFF71DFEEEE7FFF744
:1016E0001AFEF6E724090020002201400100000F45
:1016F00000B589B0002303930493059306930793E1
:1017000003681B4A934205D01A4A93420FD009B08E
:101710005DF804FB00230093174B5A6C42F480726F
:101720005A645B6C03F480730093009BEFE7002125
:101730000191114B5A6C42F480625A645A6C02F463
:1017400080620192019A02911A6B42F020021A63A0
:101750001B6B03F020030293029B4FF480630393FF
:101760000323049303A9054801F01AFFCFE700BF44
:1017700000200140002201400038024000140240D5
:1017800008B50E480E4B03600323436000238360BB
:10179000C3604FF4102202614FF4001242610376DD
:1017A000012242768376C2760377437702F06AFAA3
:1017B00000B908BDFFF7AFFDFBE700BFE00900205F
:1017C0000064004008B50E480E4B036003234360DD
:1017D00000238360C3604FF4102202614FF40012B3
:1017E00042610376012242768376C376037743779C
:1017F00002F048FA00B908BDFFF78DFDFBE700BF16
:10180000B80900200068004010B58AB00023059395
:10181000069307930893099303683D4A934204D0C3
:101820003C4A934234D00AB010BD3B4A136801339E
:101830001360012B1FD000240194384B1A6B42F027
:1018400008021A631B6B03F008030193019B032337
:1018500005930222069208930923099305A93048AB
:1018600001F09EFE22460621142002F0A9F9142060
:1018700002F0B6F9D7E700230093284B1A6C42F028
:1018800000721A641B6C03F000730093009BD2E794
:1018900000230293214B1A6C42F080621A641B6C85
:1018A00003F080630293029B1B4A136801331360A9
:1018B000012B20D000240494184B1A6B42F0020232
:1018C0001A631B6B03F002030493049B60230593CC
:1018D00002230693032308930923099305A91148BA
:1018E00001F05EFE22460621402002F069F9402008
:1018F00002F076F997E700230393084B1A6C42F045
:1019000000721A641B6C03F000730393039BD1E70E
:101910000064004000680040B40900200038024024
:10192000000C02400004024010B582B00024009474
:101930002A4B1A6B42F480021A631A6B02F480027B
:101940000092009A01941A6B42F400121A631B6B06
:1019500003F400130193019B224605210C2002F0A1
:101960002FF90C2002F03CF9224605212F2002F02D
:1019700027F92F2002F034F922462146392002F0BF
:101980001FF9392002F02CF9224605213A2002F0F5
:1019900017F93A2002F024F9224605213B2002F0F3
:1019A0000FF93B2002F01CF922462146442002F0A8
:1019B00007F9442002F014F922460521452002F0DF
:1019C000FFF8452002F00CF922460521462002F0DE
:1019D000F7F8462002F004F902B010BD00380240CA
:1019E00008B50B480B4B03600B4B4360002383602F
:1019F000C3604FF48042026143618361C36103624B
:101A000002F05AFD00B908BDFFF785FCFBE700BFF7
:101A1000100B002000540040801A060008B50B4847
:101A20000B4B03600B4B436000238360C3604FF498
:101A30008042026143618361C361036202F03CFD45
:101A400000B908BDFFF767FCFBE700BFBC0A002038
:101A500000580040801A060008B50B480B4B036085
:101A60000B4B436000238360C3604FF480420261EC
:101A700043618361C361036202F01EFD00B908BDCA
:101A8000FFF749FCFBE700BF680A0020005C00404C
:101A9000801A06002DE9F0438DB0002307930893C8
:101AA00009930A930B930368594A934209D0044659
:101AB000584A93422BD0584A934268D00DB0BDE8A3
:101AC000F08300250095554C236B43F002032363FC
:101AD000236B03F002030093009B4FF440730793C2
:101AE000122308930123099303230A9304230B93DE
:101AF00007A94B4801F054FD0195236C43F40013F2
:101B00002364236C03F400130193019BD6E70025A3
:101B10000295424E336B43F020033363336B03F083
:101B200020030293029B03230793122208920122AF
:101B300009920A9304230B9307A93A4801F030FD58
:101B40000395336C43F480033364336C03F48003F4
:101B50000393039B3448354B03604FF0606343604D
:101B600040238360C5604FF48063036145618561F4
:101B7000C5614FF400330362456201F075FE18B988
:101B8000294B63639C6399E7FFF7C5FBF8E70025E2
:101B90000495224C236B43F004032363236B03F06F
:101BA00004030493049B0595236B43F00103236313
:101BB000236B03F001030593059B4FF40073079318
:101BC0004FF01209CDF820904FF00108CDF8248095
:101BD00003270A9704260B9607A9154801F0E0FC95
:101BE0004FF480730793CDF82090CDF824800A97A6
:101BF0000B9607A90F4801F0D3FC0695236C43F41C
:101C000000032364236C03F400030693069B55E74B
:101C10000054004000580040005C00400038024082
:101C20000004024000140240080A0020B86002408C
:101C3000000802400000024008B50F480F4B036047
:101C40004FF48273436000238360C3600222026109
:101C5000012242614FF4007282611022C26103626C
:101C6000436283620A23C36202F082FD00B908BDA9
:101C7000FFF751FBFBE700BF7C0C00200030014068
:101C800008B50F480F4B03604FF482734360002385
:101C90008360C36002220261012242614FF400723C
:101CA00082610822C2610362436283620A23C362C3
:101CB00002F05EFD00B908BDFFF72DFBFBE700BF9A
:101CC000240C0020003800402DE9F0438BB00023A5
:101CD000059306930793089309930368534A934225
:101CE00005D0534A93427AD00BB0BDE8F083044646
:101CF000002500954F4B5A6C42F480525A645A6C3E
:101D000002F480520092009A01951A6B42F002028E
:101D10001A631A6B02F002020192019A02951A6B81
:101D200042F001021A631B6B03F001030293029B52
:101D3000182305934FF00209CDF818904FF00108D1
:101D4000CDF81C80032708970526099605A93A486F
:101D500001F026FC80230593CDF81890CDF81C8067
:101D60000897099605A9354801F01AFC3448354B07
:101D700003604FF0C06343608560C5604FF48063CB
:101D8000036145618561C5614FF44033036245627B
:101D900001F06AFDE8B92A4BE3649C632A482B4BA7
:101DA00003604FF0C0634360402383600023C3603F
:101DB0004FF48062026143618361C3614FF400327A
:101DC0000262436201F050FD30B91F4BA3649C6373
:101DD0008AE7FFF7A0FADEE7FFF79DFAF5E70021B3
:101DE0000391144B1A6C42F480421A641A6C02F488
:101DF00080420392039A04911A6B42F002021A6322
:101E00001B6B03F002030493049B4FF460430593A0
:101E100002230693012307930323089305230993C1
:101E200005A9054801F0BCFB5EE700BF003001409A
:101E30000038004000380240000402400000024028
:101E4000C40B002040640240640B00205864024030
:101E500000B587B000230293039304930593009386
:101E600001931448144A02604360836042F2CF0237
:101E7000C2600361836102F0D5FF90B94FF48053D3
:101E8000029302A90B4803F0B4F868B90023009349
:101E900001936946074803F019F940B907B05DF8A6
:101EA00004FBFFF738FAE9E7FFF735FAEEE7FFF74B
:101EB00032FAF3E7D40D00200004004086B0036836
:101EC000304A93421BD0304A934226D02F4A934245
:101ED00030D02F4A93423AD02E4A934244D02E4AD1
:101EE000934218D1002305932C4B5A6C42F40032D4
:101EF0005A645B6C03F400330593059B0BE00023ED
:101F00000093264B5A6C42F001025A645B6C03F05A
:101F100001030093009B06B07047002301931F4B01
:101F20001A6C42F002021A641B6C03F00203019364
:101F3000019BF0E700230293184B1A6C42F0040255
:101F40001A641B6C03F004030293029BE3E7002373
:101F50000393124B1A6C42F008021A641B6C03F0D4
:101F600008030393039BD6E7002304930B4B5A6C9F
:101F700042F002025A645B6C03F002030493049B78
:101F8000C9E700BF00000140000400400008004015
:101F9000000C0040000401400044014000380240B1
:101FA00000B58BB00023059306930793089309931C
:101FB00003684A4A93420ED0494A934225D0494A7F
:101FC00093423DD0484A934254D0484A93426BD002
:101FD0000BB05DF804FB00230093454B1A6B42F0F5
:101FE00010021A631B6B03F010030093009B4FF465
:101FF000D443059302220692012307930892099382
:1020000005A93C4801F0CCFAE2E700230193384BE4
:102010001A6B42F008021A631B6B03F0080301936A
:10202000019B4FF4804305930223069301220792FC
:1020300003220892099305A92F4801F0B1FAC7E7D6
:10204000002302932A4B1A6B42F080021A631B6B27
:1020500003F080030293029B4FF4E05305930223A5
:102060000693012207920893099305A9234801F0DA
:1020700097FAADE7002303931D4B1A6B42F004025D
:102080001A631B6B03F004030393039B4023059324
:10209000022306930122079208930323099305A9BB
:1020A000174801F07DFA93E700230493104B1A6B55
:1020B00042F020021A631B6B03F020030493049B7D
:1020C00040230593022306930122079208930323DA
:1020D000099305A90B4801F063FA79E70000014074
:1020E00000080040000C0040000401400044014092
:1020F0000038024000100240000C0240001C024068
:10210000000802400014024010B596B0002412945A
:102110001394149415941094119409940A940B94A4
:102120000C940D940E940F942022214601A8FEF7E2
:102130002FF83C483C4B036053234360846040F2DB
:10214000CF73C36004614461846102F06BFE0028B8
:102150004DD14FF48053129312A9324802F049FF37
:10216000002847D12F4802F077FE002845D10023F0
:102170001093119310A92B4802F0A8FF00283FD11B
:10218000602309934FF47A730A9300220B920C9206
:102190000D920E920F9209A9224802F0AFFE00287C
:1021A00031D1042209A91F4802F0A8FE70BB082201
:1021B00009A91C4802F0A2FE58BB0C2209A9194823
:1021C00002F09CFE40BB002301930293039304930F
:1021D00005934FF400520692089301A9114802F0AA
:1021E000BBFFE0B90F48FFF7DBFE16B010BDFFF7ED
:1021F00092F8AEE7FFF78FF8B4E7FFF78CF8B6E791
:10220000FFF789F8BCE7FFF786F8CAE7FFF783F81E
:10221000CDE7FFF780F8D0E7FFF77DF8D3E7FFF7CA
:102220007AF8DFE7140E00200000014000B58FB0FF
:1022300000230A930B930C930D9308930993019336
:102240000293039304930593069307932148224A2C
:10225000026029224260836044F61F62C26003610B
:10226000836102F0DFFD28BB4FF480530A930AA973
:10227000184802F0BEFE00BB164802F0EDFDF8B9AA
:1022800000230893099308A9124802F01FFFD0B950
:10229000602301930023029303930593082201A96D
:1022A0000C4802F02BFE88B90A48FFF779FE0FB000
:1022B0005DF804FBFFF72FF8D6E7FFF72CF8DBE714
:1022C000FFF729F8DCE7FFF726F8E1E7FFF723F847
:1022D000EAE700BF940D00200008004000B58FB071
:1022E00000230A930B930C930D9308930993019386
:1022F0000293039304930593069307932A482B4A6A
:10230000026029224260836044F62062C260036159
:10231000836102F087FD002831D14FF480530A9386
:102320000AA9214802F065FE60BB1F4802F094FD37
:1023300058BB00230893099308A91B4802F0C6FE66
:1023400030BB60230193002202920392059201A9FF
:10235000154802F0D3FDF0B904220DEB020112483A
:1023600002F0CCFDD0B9082201A90F4802F0C6FD49
:10237000B8B90D48FFF714FE0FB05DF804FBFEF787
:10238000CAFFCAE7FEF7C7FFCFE7FEF7C4FFD0E7F3
:10239000FEF7C1FFD5E7FEF7BEFFDDE7FEF7BBFFA7
:1023A000E1E7FEF7B8FFE4E7540D0020000C004021
:1023B00010B596B0002412941394149415941094AC
:1023C000119409940A940B940C940D940E940F9408
:1023D0002022214601A8FDF7DBFE2E482E4B03608C
:1023E00058234360846044F61F63C3600461446102
:1023F000846102F017FD00283AD14FF48053129304
:1024000012A9244802F0F5FD002834D1214802F039
:1024100023FD002832D100231093119310A91D48E9
:1024200002F054FE00282CD1602309934FF47A73F4
:102430000A9300220B920C920D920E920F9209A910
:10244000144802F05BFDF8B9002301930293039353
:10245000049305934FF400520692089301A90D4886
:1024600002F07AFE98B90B48FFF79AFD16B010BD3E
:10247000FEF751FFC1E7FEF74EFFC7E7FEF74BFF40
:10248000C9E7FEF748FFCFE7FEF745FFDCE7FEF7B9
:1024900042FFE8E7140D00200004014000B589B0B8
:1024A00000230193029303930493059306930793E8
:1024B0001548164A026053224260836040F2CF7290
:1024C000C2600361836102F0ADFCA0B90E4802F066
:1024D000C3FC98B9602301930022029203920592F3
:1024E00001A9094802F00AFD58B90748FFF758FD4D
:1024F00009B05DF804FBFEF70EFFE7E7FEF70BFF00
:10250000E8E7FEF708FFF0E7D40C002000440140A4
:1025100008B50A480A4B03604FF4E13343600023D7
:102520008360C36003610C2242618361C36102F076
:1025300029FF00B908BDFEF7EEFEFBE7B41000204E
:102540000010014008B50B480B4B03600B4B436078
:1025500000238360C3604FF4806202610C224261F9
:102560008361C36102F00EFF00B908BDFEF7D3FE20
:10257000FBE700BF7410002000480040A086010067
:1025800008B50A480A4B03604FF4E1334360002367
:102590008360C36003610C2242618361C36102F006
:1025A000F1FE00B908BDFEF7B6FEFBE734100020CF
:1025B000001401402DE9F0418CB00446002307933C
:1025C000089309930A930B9303689B4A93420AD09A
:1025D0009A4A934200F08280994A934200F0C78061
:1025E0000CB0BDE8F08100250095964B5A6C42F086
:1025F00010025A645A6C02F010020092009A01957F
:102600001A6B42F002021A631A6B02F00202019284
:10261000019A02951A6B42F001021A631B6B03F0D8
:1026200001030293029B802307934FF00208CDF829
:10263000208003270A9707260B9607A9824800F0F7
:10264000AFFF4FF400730793CDF8208009950A97E8
:102650000B9607A97D4800F0A3FF7D487D4B0360E2
:102660004FF00063436040238360C5604FF4806394
:10267000036145618561C5614FF480330362456242
:1026800001F0F2F820BB724B23639C637248734BDA
:1026900003604FF00063436000238360C3604FF426
:1026A00080620261436183614FF48072C2610362A0
:1026B000436201F0D9F870B9674B63639C630022F1
:1026C0001146252001F07CFA252001F089FA87E7E0
:1026D000FEF721FED7E7FEF71EFEEDE70025039586
:1026E000584B1A6C42F480221A641A6C02F480224D
:1026F0000392039A04951A6B42F004021A631B6B4F
:1027000003F004030493049B4FF4406307930223F4
:10271000089303230A9307230B9307A9504800F05B
:102720003FFF5048504B03604FF0006343608560AB
:10273000C5604FF480630361456185614FF4807328
:10274000C3614FF400330362456201F08DF858B95C
:10275000444B63639C6300220421272001F030FA7C
:10276000272001F03DFA3BE7FEF7D5FDF0E7002515
:102770000595344B5A6C42F020025A645A6C02F0B0
:1027800020020592059A06951A6B42F040021A63E0
:102790001B6B03F040030693069B4FF4844307939F
:1027A0000223089303230A9308230B9307A92F48B6
:1027B00000F0F6FE2E482F4B03604FF0206343607D
:1027C00040238360C5604FF4806303614561856188
:1027D000C5614FF480330362456201F045F820BBC8
:1027E000234B23639C632448244B03604FF02063F6
:1027F000436000238360C3604FF4806202614361E1
:1028000083614FF48072C2610362436201F02CF86D
:1028100070B9194B63639C6300220521472001F0C6
:10282000CFF9472001F0DCF9DAE6FEF774FDD7E7CF
:10283000FEF771FDEDE700BF0010014000480040C9
:102840000014014000380240000402400000024031
:10285000D40F0020B8640240740F00208864024046
:1028600000080240140F00202860024000180240B7
:10287000B40E0020A0640240540E002028640240E0
:10288000704708B5012383F3138801F0B7F9F9E71E
:10289000FEE7FEE7FEE7704708B5082000F070FF8E
:1028A00008BD08B5102000F06BFF08BD08B5024850
:1028B00001F0D8FC08BD00BFE009002008B52020C9
:1028C00000F05EFF402000F05BFF802000F058FF2A
:1028D00008BD000008B5024802F083F908BD00BF3A
:1028E000F410002008B5024806F073FC08BD00BFD4
:1028F000B410002008B5024806F06BFC08BD00BF0C
:102900007410002008B5024801F014F808BD00BF9B
:10291000540E002008B5024801F0A4FC08BD00BF19
:10292000B809002008B5024801F004F808BD00BF4E
:10293000740F002008B5024800F0FCFF08BD00BF7E
:10294000B40E002008B5024800F0F4FF08BD00BF37
:10295000D40F002008B5024806F03BFC08BD00BFBC
:102960003410002000B583B0002200920D4B596C4A
:1029700041F480415964596C01F4804100910099FF
:102980000192196C41F0805119641B6C03F0805363
:102990000193019B0F216FF0010001F011F903B0C9
:1029A0005DF804FB0038024010B588B001460022F3
:1029B0001C2001F005F91C2001F012F900240194FB
:1029C000144B1A6C42F001021A641B6C03F00103F1
:1029D0000193019B02A903A800F0C4FD00F0A2FD31
:1029E00043000D4AA2FB03239B0C013B0B484FF015
:1029F0008042026040F2E732C2604360046184605A
:102A000002F010FA10B1012008B010BD034802F026
:102A1000D2F8F9E70038024083DE1B43F4100020AF
:102A20004A4B5A6822F440325A605A6841680A4355
:102A30005A600268536823F48073536002685368D5
:102A4000016943EA012353600268536823F040732D
:102A500053600268536881680B435360026893684F
:102A600023F40063936002689368C1680B4393602A
:102A7000826A374B9A4257D00268936823F070639A
:102A8000936002689368816A0B439360026893685D
:102A900023F04053936002689368C16A0B439360CC
:102AA0000268936823F00203936002689368017ED2
:102AB00043EA4103936090F82030002B3FD0026836
:102AC000536843F4006353600268536823F460431F
:102AD000536001684B68426A013A43EA42334B60F3
:102AE0000268D36A23F47003D3620168CB6AC269B7
:102AF000013A43EA0253CB620268936823F40073FD
:102B000093600268936890F8301043EA4123936021
:102B10000268936823F48063936002689368416954
:102B200043EA8123936070470268936823F07063DF
:102B300093600268936823F040539360B0E70268A3
:102B4000536823F400635360CAE700BF00230140C9
:102B50000100000F38B310B50446036C43B1236C79
:102B600013F0100F0BD00120002384F83C3010BD6F
:102B7000FEF7BEFD0023636484F83C30EFE7236C6E
:102B800023F4885323F0020343F002032364204616
:102B9000FFF746FF00206064236C23F0030343F03B
:102BA00001032364E0E701207047000082B00023A6
:102BB000019390F83C30012B7DD0012380F83C300C
:102BC00003689A6812F0010F13D19A6842F001026B
:102BD0009A603D4B1B683D4AA2FB03239B0C03EB11
:102BE0004303019302E0019B013B0193019B002BF6
:102BF000F9D10268936813F0010F5ED0036C23F4DF
:102C0000E06323F0010343F480730364536813F417
:102C1000806F05D0036C23F4405343F48053036466
:102C2000036C13F4805F1BD0436C23F006034364F2
:102C3000002380F83C306FF022031360244B5B6864
:102C400013F01F0F27D10368224A934211D002F5D7
:102C50008072934207D0204A934214D000202DE086
:102C600000234364E4E702F50072526812F01F0F7C
:102C7000F1D19A6812F0405F22D19A6842F0804206
:102C80009A6000201AE002F58072526812F0100F6C
:102C9000EFD0002012E003680E4A934201D00020DA
:102CA0000CE09A6812F0405F0CD19A6842F08042C2
:102CB0009A60002002E0022000E0002002B070478D
:102CC0000020FBE70020F9E75800002083DE1B43CB
:102CD00000230140002001400022014070B504465D
:102CE0000D4603689A6812F4806F03D09B6813F452
:102CF000807F19D100F0ACFF064623681A6812F0F5
:102D0000020F1AD1B5F1FF3FF7D025B100F0A0FFB7
:102D1000801BA842F1D9236C43F0040323640023F1
:102D200084F83C3003202CE0036C43F02003036460
:102D3000002380F83C30012023E06FF012021A607B
:102D4000236C43F40073236423689A6812F0405F95
:102D500016D1207EB0B9DA6A12F4700F03D09B68E6
:102D600013F4806F0DD1236C23F480732364236CE0
:102D700013F4805F05D1236C43F00103236400E06A
:102D8000002070BD0020FCE70368D86C704700008D
:102D900030B482B00022019290F83C20012A00F069
:102DA000B6800346012280F83C200A68092A40D9EF
:102DB0000468E06892B202EB42021E3A4FF0070C40
:102DC0000CFA02F220EA0202E2601C68E0680A885B
:102DD00002EB42021E3A8D6805FA02F20243E260FB
:102DE0004A68062A3CD81C68606B02EB8202053AEE
:102DF0004FF01F0C0CFA02F220EA020262631C6818
:102E0000606B4A6802EB8202053AB1F800C00CFA26
:102E100002F20243626318683E4A904250D018683A
:102E20003C4A904255D0002083F83C0002B030BCB0
:102E300070470468206992B202EB42024FF0070C1F
:102E40000CFA02F220EA020222611C6820690A8858
:102E500002EB42028D6805FA02F202432261BFE7EB
:102E60000C2A16D81D68286B02EB8202233A1F2415
:102E700004FA02F220EA02022A631D68286B4A68FB
:102E800002EB8202233A0C8804FA02F202432A631C
:102E9000C1E71D68E86A02EB8202413A1F2404FA86
:102EA00002F220EA0202EA621D68E86A4A6802EB5E
:102EB0008202413A0C8804FA02F20243EA62AAE76B
:102EC0000A68122AABD11448426842F48002426078
:102ED000A5E70A68103A012AA5D80F48426842F4CB
:102EE000000242600A68102A9DD10C4A12680C49FF
:102EF000A1FB0212920C02EB82025200019202E04C
:102F0000019A013A0192019A002AF9D18BE7022035
:102F10008CE700BF00200140002301405800002042
:102F200083DE1B43002800F0DA8170B582B00446CE
:102F3000036813F0010F3BD09F4B9B6803F00C0319
:102F4000042B2CD09C4B9B6803F00C03082B21D046
:102F50006368B3F5803F4FD0B3F5A02F52D0964BA6
:102F60001A6822F480321A601A6822F480221A60E9
:102F70006368002B50D000F06BFE05468E4B1B683B
:102F800013F4003F14D100F063FE401B6428F5D910
:102F90000320ABE1884B5B6813F4800FD8D0864BDD
:102FA0001B6813F4003F03D06368002B00F0998185
:102FB000236813F0020F54D07F4B9B6813F00C0F63
:102FC0003ED07D4B9B6803F00C03082B33D0E368A5
:102FD000002B68D0794B01221A6000F039FE0546BB
:102FE000754B1B6813F0020F54D100F031FE401BEB
:102FF0000228F5D9032079E16F4A136843F480333E
:103000001360B5E76C4B1A6842F480221A601A68A4
:1030100042F480321A60ABE700F01AFE0546664BB8
:103020001B6813F4003FC3D000F012FE401B64285D
:10303000F5D903205AE1604B5B6813F4800FC6D1C9
:103040005D4B1B6813F0020F03D0E368012B40F0C7
:103050004A81594A136823F0F803216943EAC103FE
:103060001360236813F0080F42D063696BB3534BAE
:103070000122C3F8802E00F0EBFD05464E4B5B6F3E
:1030800013F0020F34D100F0E3FD401B0228F5D904
:1030900003202BE1484A136823F0F803216943EA2F
:1030A000C1031360DDE7454B00221A6000F0D0FD3C
:1030B0000546414B1B6813F0020FD2D000F0C8FD4B
:1030C000401B0228F5D9032010E13C4B0022C3F835
:1030D000802E00F0BDFD0546374B5B6F13F0020FED
:1030E00006D000F0B5FD401B0228F5D90320FDE015
:1030F000236813F0040F77D02F4B1B6C13F0805F05
:1031000033D1002301932C4B1A6C42F080521A6485
:103110001B6C03F080530193019B0125284B1B6816
:1031200013F4807F23D0A368012B34D0052B38D033
:10313000214B1A6F22F001021A671A6F22F0040263
:103140001A67A368002B3DD000F082FD06461A4B9B
:103150001B6F13F0020F46D100F07AFD801B41F285
:1031600088339842F3D90320C0E00025D6E7144AFB
:10317000136843F48073136000F06AFD0646104B39
:103180001B6813F4807FCED100F062FD801B022803
:10319000F5D90320AAE0084A136F43F0010313672F
:1031A000CFE7054B1A6F42F004021A671A6F42F01C
:1031B00001021A67C5E700BF00380240000047421D
:1031C0000070004000F044FD06464F4B1B6F13F0AB
:1031D000020F08D000F03CFD801B41F2883398427A
:1031E000F3D9032082E0E5B9A369002B7DD0464ADC
:1031F000926802F00C02082A51D0022B17D0434BE0
:1032000000221A6600F024FD04463F4B1B6813F0B1
:10321000007F42D000F01CFD001B0228F5D90320DE
:1032200064E0394A136C23F080531364DCE7374BB6
:1032300000221A6600F00CFD0546334B1B6813F0A4
:10324000007F06D000F004FD401B0228F5D90320C2
:103250004CE0E369226A1343626A43EA8213A26A7A
:103260005208013A43EA0243E26A43EA0263264A09
:103270005360264B01221A6600F0EAFC0446224BFA
:103280001B6813F0007F06D100F0E2FC001B02284F
:10329000F5D903202AE0002028E0002026E0012BB9
:1032A00026D0194B5B6803F48001E269914221D179
:1032B00003F03F02216A8A421ED1616A47F6C0725A
:1032C0001A408A421AD103F44032A16A8A4217D1C5
:1032D00003F07063E26A934214D1002006E00120FB
:1032E0007047012002E0012000E0002002B070BD24
:1032F0000120FBE70120F9E70120F7E70120F5E7CE
:103300000120F3E70120F1E70038024000004742C6
:1033100008B5264B9B6803F00C03042B41D0082B07
:1033200041D1224B5A6802F03F025B6813F4800FD0
:1033300012D01E4B5968C1F388111D480023A1FB10
:103340000001FDF70FFF194B5B68C3F30143013325
:103350005B00B0FBF3F008BD144B5868C0F3881055
:103360004FEA401CBCEB000C6EEB0E0E4FEA8E13C6
:1033700043EA9C634FEA8C11B1EB0C0163EB0E0343
:10338000DB0043EA5173C90011EB000C43F1000369
:10339000990200234FEA8C2041EA9C51FDF7E2FE9E
:1033A000D1E70348D7E70348D5E700BF003802401C
:1033B000001BB7000024F400002800F09B8070B5CB
:1033C0000D4604464F4B1B6803F00F038B4208D297
:1033D000CBB24C4A1370136803F00F038B4240F0DA
:1033E0008B80236813F0020F17D013F0040F04D062
:1033F000454A936843F4E0539360236813F0080F41
:1034000004D0414A936843F4604393603E4A936812
:1034100023F0F003A1680B439360236813F0010FBE
:1034200032D06368012B21D09A1E012A25D9364A51
:10343000126812F0020F61D033498A6822F0030249
:1034400013438B6000F004FC06462F4B9B6803F08F
:103450000C036268B3EB820F16D000F0F9FB801BFF
:1034600041F288339842F0D9032042E0264A12689C
:1034700012F4003FE0D101203BE0234A126812F031
:10348000007FD9D1012034E01E4B1B6803F00F03ED
:10349000AB4207D9EAB21B4B1A701B6803F00F034B
:1034A000AB422DD1236813F0040F06D0164A93685F
:1034B00023F4E053E1680B439360236813F0080F93
:1034C00007D0114A936823F46043216943EAC1039A
:1034D0009360FFF71DFF0C4B9B68C3F303130B4A6C
:1034E000D35CD8400A4B18600A4B1868FFF75CFAA7
:1034F000002070BD012070470120FAE70120F8E7A5
:103500000120F6E7003C0240003802401CB00008F1
:103510005800002054000020014B1868704700BF7D
:103520005800002008B5FFF7F7FF044B9B68C3F372
:103530008223034AD35CD84008BD00BF0038024054
:1035400014B0000808B5FFF7E7FF044B9B68C3F30E
:103550004233034AD35CD84008BD00BF0038024064
:1035600014B000080F2303600B4B9A6802F00302AB
:1035700042609A6802F0F00282609A6802F4E052B7
:10358000C2609B68DB0803F4E0530361034B1B68D4
:1035900003F00F030B60704700380240003C02400C
:1035A00000230F2B00F2DA80F0B583B03AE0072257
:1035B00000E00022AA4032430234694D45F824203D
:1035C000684A14686FEA0C0224EA0C054E6816F487
:1035D000803F01D04CEA0405624C2560646802EA31
:1035E00004054E6816F4003F01D04CEA04055D4C1A
:1035F0006560A46802EA04054E6816F4801F01D0D5
:103600004CEA0405574CA560E46822404D6815F467
:10361000001F01D04CEA0402524CE26001330F2B30
:1036200000F29A8001229A400C6804EA020C32EA05
:103630000404F3D14C68651E012D03D9112C01D06F
:10364000122C12D185685E000324B44025EA0405DB
:10365000CC68B4402C438460446824EA02044A687D
:10366000C2F300129A4022434260C5684FEA430EFB
:10367000032202FA0EF2D44325EA02058A6802FA0E
:103680000EF22A43C2604A68022A01D0122A0FD1E0
:10369000DD08083550F8257003F00706B6000F2244
:1036A000B24027EA02070A69B2403A4340F82520AF
:1036B000026814404A6802F0030202FA0EF2224342
:1036C00002604A6812F0805FA8D000220192264A68
:1036D000546C44F480445464526C02F4804201926D
:1036E000019A9C08A51C1E4A52F8256003F00305A8
:1036F000AD000F22AA4026EA02061C4A90423FF47F
:1037000058AF02F5806290421AD002F58062904272
:1037100018D002F58062904216D002F58062904285
:1037200014D002F58062904212D002F5806290427D
:1037300010D002F5806290423FF439AF082239E799
:10374000012237E7022235E7032233E7042231E77B
:1037500005222FE706222DE703B0F0BD704700BF1A
:1037600000380140003C01400038024000000240A7
:103770000AB1816170470904816170477047000098
:1037800008B5054B5B69034200D108BD024B586187
:10379000FFF7F4FFF9E700BF003C014010B40368F5
:1037A000D9B210390A4AA2FB01421209094CA25CA3
:1037B000C2655F2907D96FF3090304338365806D00
:1037C0005DF8044B70476FF309038365F7E700BFAB
:1037D000ABAAAAAA0CB00008836A826992B9012B2D
:1037E0000AD0022B02D00BB100207047C36A13F03D
:1037F000807F28D100207047C36AB3F1C07F24D0F6
:1038000000207047B2F5005F09D0022B25D9032BA9
:1038100025D1C36A13F0807F23D100207047032B8A
:1038200003D8DFE803F01404140A00207047C36AC9
:1038300013F0807F0DD100207047C36AB3F1C07FC1
:1038400009D00020704701207047012070470120F7
:103850007047012070470120704701207047002009
:10386000704701207047000070B5044600F0F0F981
:10387000002C5BD00546002384F83430022384F802
:1038800035302268136823F00103136023681A6837
:1038900012F0010F0AD000F0DBF9431B052BF5D91C
:1038A00020236365032084F8350070BD1A68204921
:1038B00011406268A0680243E06802432069024345
:1038C00060690243A0690243E0690243206A02433F
:1038D0000A43616A04291ED01A602668756925F0BA
:1038E0000705636A1D43042B07D1A36A1D43E36ADE
:1038F0001BB12046FFF770FF90B975612046FFF7B6
:103900004DFFE26D3F2393408360002060650123FB
:1039100084F83530C9E7E16A206B01430A43DBE7ED
:1039200040236365012084F83500BEE70120BCE731
:103930003F8010F0F0B583B0044600230193724B32
:103940001D68724BA3FB0535AD0A876D3E68C26DDD
:1039500008239340334210D003681A6812F0040F12
:103960000BD01A6822F004021A60C26D082393403B
:10397000BB60436D43F001034365E26D0123934057
:10398000334209D02268526912F0800F04D0BB6024
:10399000636D43F002036365E26D04239340334299
:1039A00009D02268126812F0020F04D0BB60636D68
:1039B00043F004036365E26D10239340334224D047
:1039C0002268126812F0080F1FD0BB6023681A68C3
:1039D00012F4802F0DD01B6813F4002F04D1236C38
:1039E0009BB12046984710E0A36C73B120469847DE
:1039F0000BE01A6812F4807F03D11A6822F00802E3
:103A00001A60236C0BB120469847E26D2023934047
:103A1000334255D02268126812F0100F50D0BB60AC
:103A200094F83530DBB2052B0ED023681A6812F4F7
:103A3000802F33D01B6813F4002F2AD1636C002B26
:103A40003ED0204698473BE02268136823F01603D7
:103A500013602268536923F080035361236CA3B180
:103A60002268136823F008031360E26D3F2393403C
:103A7000BB60002384F83430012384F83530236D93
:103A8000002B3FD0204698473CE0A36C002BE7D1A9
:103A9000EBE7E36BA3B12046984711E01A6812F4F4
:103AA000807F09D11A6822F010021A60002384F87E
:103AB0003430012384F83530E36B0BB1204698474E
:103AC000636DFBB1636D13F0010F17D0052384F80C
:103AD00035302268136823F001031360019B013322
:103AE0000193AB4204D823681B6813F0010FF5D192
:103AF000002384F83430012384F83530E36C0BB1B3
:103B00002046984703B0F0BD58000020B5814E1BF9
:103B1000002808DB0901C9B200F1604000F56140EE
:103B200080F80013704700F00F000901C9B2014B83
:103B30001954704714ED00E000B500F00700C0F123
:103B4000070CBCF1040F28BF4FF0040C031D062B1B
:103B50000FD9C31E4FF0FF3E0EFA0CF021EA000110
:103B600099400EFA03FE22EA0E0241EA02005DF8D5
:103B700004FB0023EEE70000BFF34F8F0549CA683E
:103B800002F4E062044B1343CB60BFF34F8F00BFDE
:103B9000FDE700BF00ED00E00400FA05074AD36826
:103BA00023F4E0631B041B0C000200F4E0600343F9
:103BB00043F0BF6343F40033D360704700ED00E08F
:103BC00010B50446054BD868C0F30220FFF7B4FFD8
:103BD00001462046FFF79CFF10BD00BF00ED00E04E
:103BE000002807DB00F01F02400901239340024A2E
:103BF00042F82030704700BF00E100E008B5FFF751
:103C0000BBFF000008B50B4B1A6842F400721A6043
:103C10001A6842F480621A601A6842F480721A606C
:103C20000320FFF7BBFF0020FEF7BEFEFEF79AFE63
:103C3000002008BD003C0240034A1168034B1B787A
:103C40000B441360704700BF341100205000002067
:103C5000014B1868704700BF3411002038B5044686
:103C6000FFF7F6FF0546B4F1FF3F02D0044B1B7887
:103C70001C44FFF7EDFF401BA042FAD338BD00BF44
:103C800050000020002800F0A18038B5044690F8CC
:103C90002030D3B12268136823F002031360FFF7CA
:103CA000D7FF054623685A6812F0020F10D0FFF7BD
:103CB000CFFF401B0A28F5D9636A43F400336362DF
:103CC000052384F82030012038BDFDF79DFDE1E794
:103CD0001A6842F001021A60FFF7BAFF054623682E
:103CE0005A6812F0010F0DD1FFF7B2FF401B0A28EE
:103CF000F5D9636A43F400336362052384F8203006
:103D00000120E1E7227E012A3DD01A6822F08002DC
:103D10001A60637E012B3BD02268136823F04003B6
:103D20001360A37E012B39D02268136823F020038F
:103D30001360E37E012B37D02268136843F0100331
:103D40001360237F012B35D02268136823F008030A
:103D50001360637F012B33D02268136823F00403C0
:103D60001360A368E2681343226913436269134333
:103D70006268013A21681343CB610020606201232D
:103D800084F82030A0E71A6842F080021A60C0E789
:103D90002268136843F040031360C2E72268136887
:103DA00043F020031360C4E72268136823F0100374
:103DB0001360C6E72268136843F008031360C8E77E
:103DC0002268136843F004031360CAE701207047B8
:103DD00090F82030013BDBB2012B05D9436A43F454
:103DE000802343620120704730B5464BD3F8002250
:103DF00042F00102C3F80022D3F8002222F47C52E0
:103E0000C3F80022D3F80022486A42EA0022C3F82D
:103E100000224A6902F01F02012000FA02F2D3F8E0
:103E20001C026FEA020C20EA0200C3F81C02CB69F4
:103E3000C3B9344BD3F80C020CEA0000C3F80C02EF
:103E40008C884869CD6844EA0544483043F83040DE
:103E50008C68088840EA04404C6904F1480E03EB82
:103E6000CE035860CB69012B1ED08B69002B33D158
:103E70002448D0F804320CEA0303C0F804320B697A
:103E80008BBB2048D0F814320CEA0303C0F814327C
:103E90000B6A012B2ED01B4AD2F8003223F001030B
:103EA000C2F80032002030BD164BD3F80C0210438C
:103EB000C3F80C028C8848690D6844EA0544483010
:103EC00043F8304088894C698D6840EA05404834A1
:103ED00003EBC4035860C8E70A48D0F80432134320
:103EE000C0F80432CBE70748D0F814321343C0F8C7
:103EF0001432CDE70349D1F81C321343C1F81C3208
:103F0000C9E700BF0064004070B5044690F8205037
:103F1000EDB2012D06D0436A43F40023436201252C
:103F2000284670BD022380F820300268136823F011
:103F300001031360FFF78CFE064623685B6813F0ED
:103F4000010F0CD0FFF784FE831B0A2BF5D9636A9F
:103F500043F400336362052384F82030E0E7002552
:103F60006562DDE730B590F820C00468A4680CF104
:103F7000FF3C5FFA8CFCBCF1010F6BD814F0E05FE2
:103F800062D0C4F3016CBCF1020F05D9436A43F45B
:103F900000034362012062E0012404FA0CF41C6077
:103FA0008B68002B3DD10D68CB68046843EA45550A
:103FB0000CF118031B01E55003680C690CF1180E95
:103FC00003EB0E135C600B7D012B35D0D179937917
:103FD0001B0443EA0163517943EA01231479016820
:103FE000234301EB0C11C1F88C31D17893781B0479
:103FF00043EA0163517843EA0123117802680B43D5
:1040000002EB0C12C2F8883102680CF1180C4FEA6E
:104010000C1C52F80C3043F0010342F80C30002025
:104020001DE04C6843EAC403CC6823430CF1180438
:10403000240105682B51BFE7036803EB0E13596891
:1040400041F480715960C1E7436A43F4001343624D
:10405000012004E0436A43F480234362012030BD21
:1040600090F82030013BDBB2012B05D9436A43F4C1
:10407000802343620120704711F0010F04D00268D1
:10408000936843F08003936011F0020F04D002683C
:10409000936843F40043936011F0040F04D0026866
:1040A000936843F4000393600020704790F8203039
:1040B000013BDBB2012B01D90020704703689868EF
:1040C00010F0806000D001209A6812F0006F00D0DC
:1040D00001309B6813F0805FEFD00130704790F89B
:1040E00020C00CF1FF3C5FFA8CFCBCF1010F00F228
:1040F000958030B451B90468E46814F0030F10D10E
:10410000436A43F400134362012077E004682469A2
:1041100014F0030F05D1436A43F4001343620120F6
:104120006CE001F11B04240105682C5904F004041F
:104130009460002C64D101F11B04240105682C5902
:10414000640D1460046801F11B0C4FEA0C1C54F858
:104150000C4004F00204D46004686444646804F011
:104160000F041461046864446468C4F30724946110
:10417000046864446468240C5461026802EB011210
:10418000D2F8B8211A70026802EB0112D2F8B821F5
:10419000C2F307225A70026802EB0112D2F8B8216A
:1041A000C2F307429A70026802EB0112D2F8B821FA
:1041B000120EDA70026802EB0112D2F8BC211A71F9
:1041C000026802EB0112D2F8BC21C2F307225A7135
:1041D000026802EB0112D2F8BC21C2F307429A71C5
:1041E000026802EB0112D2F8BC21120EDA7179B921
:1041F0000268D36843F02003D360002030BC7047CE
:1042000001F11B04240105682C59E408546099E766
:104210000268136943F020031361EEE7436A43F435
:10422000802343620120704790F82030013BDBB2CD
:10423000012B05D9436A43F4802343620120704770
:10424000026853690B435361002070477047704701
:1042500070477047704770477047704770477047A6
:10426000704770472DE9F84F054603685C69D3F83D
:1042700004809F68D3F80CA0D3F81090D3F818B03E
:1042800014F001063BD017F0010616D001229A6007
:1042900017F0020F08D117F0040F0CD117F0080621
:1042A00006D04FF4805608E0FFF7D0FF002604E068
:1042B000FFF7CFFF01E04FF4006617F4807F0DD0C9
:1042C0002B684FF480729A6017F4007F40F096805C
:1042D00017F4806F00F0968046F4005617F4803F84
:1042E0000DD02B684FF480329A6017F4003F40F0F5
:1042F000938017F4802F00F0938046F4004614F06A
:10430000080F07D01AF0100F04D046F400762B687F
:104310001022DA6014F0040F03D01AF0080F40F0F6
:10432000898014F0020F05D02B68DB6813F0030FAF
:1043300040F0878014F0400F07D019F0100F04D020
:1043400046F480662B6810221A6114F0200F02D008
:1043500019F0080F79D114F0100F04D02B681B69E5
:1043600013F0030F78D114F4003F02D018F0100FAF
:1043700076D114F4803F02D018F0080F77D114F4EE
:10438000004F37D018F0040F31D014F4807F04D0E0
:104390001BF0010F01D046F0010614F4007F04D099
:1043A0001BF0020F01D046F0020614F4806F04D017
:1043B0001BF0040F01D046F0040614F4006F16D071
:1043C0001BF0700B13D0BBF1400F66D056D8BBF179
:1043D000200F5CD0BBF1300F5CD0BBF1100F01D1CE
:1043E00046F008062A68936923F0700393612B68EE
:1043F00004225A60002E56D1BDE8F88F2846FFF7F8
:1044000026FF6BE717F4006F02D046F4804665E79D
:104410002846FFF71FFF61E72846FFF719FF6EE701
:1044200017F4002F02D046F4803668E72846FFF7DD
:1044300012FF64E72B680822DA602846FFF70CFFBA
:104440006FE7284604F074FD74E72B6808221A61B0
:104450002846FFF703FF7EE72846FFF7FEFE82E7C8
:104460002B6810225A602846FFF7F9FE81E72B6877
:1044700008225A602846FFF7F3FE80E7BBF1500F91
:104480000ED0BBF1600FADD146F48076AAE746F0BE
:104490001006A7E746F02006A4E746F04006A1E78D
:1044A00046F080069EE76B6A33436B622846FFF74F
:1044B000D8FEA1E7406A7047002800F0CC8070B5B4
:1044C000044690F83D30002B77D0242384F83D300B
:1044D0002268136823F0010313602268136843F411
:1044E000004313602268136823F400431360FFF74E
:1044F00019F862685A4B9A4264D85A4B98428CBF5A
:1045000000230123002B40F0A8805749A1FB003174
:104510008B0C25686A6822F03F0242EA91426A6089
:1045200021680A6A22F03F0266684D4DAE424FD8BC
:10453000013313430B622168CA6922F44F4222F00F
:10454000FF026568464B9D424CD8431E6D00B3FB8D
:10455000F5F3013340F6FC70034278D0C3F30B034C
:104560001A43CA6121680B6823F0C003E269206A1C
:10457000024313430B6021688B6823F4034323F049
:10458000FF032269E068024313438B602168CB6814
:1045900023F0FF036269A06902431343CB602268E2
:1045A000136843F00103136000202064202384F883
:1045B0003D30206384F83E0070BD80F83C30FDF74C
:1045C00069FA82E7294B98428CBF0023012399E7BF
:1045D0004FF4967505FB03F3254DA5FB03539B098B
:1045E0000133A6E7A668BEB9431E05EB450CB3FB35
:1045F000FCF30133C3F30B03B3FA83F35B0943BB4F
:10460000C6B9431E05EB4505B3FBF5F30133C3F310
:104610000B0343F40043A3E7431E05EB850C0CEBAF
:104620008C0CB3FBFCF30133C3F30B03B3FA83F33A
:104630005B09E4E7431E05EB850505EB8505B3FB48
:10464000F5F30133C3F30B0343F4404388E704233A
:1046500086E7012384E7012070470120ACE700BF13
:10466000A08601007F841E0083DE1B43FF083D00FF
:10467000D34D62102DE9F0410646884617461D4687
:104680003468A46838EA04040CBF01240024BC4246
:1046900037D0B5F1FF3FF3D0FFF7DAFA069BC01A27
:1046A000A84201D2002DEBD13268536823F0E00319
:1046B00053607368B3F5827F0BD0B36AB3F5005FC4
:1046C00014D0012386F85130002386F8503003209F
:1046D00018E0B368B3F5004F02D0B3F5806FECD1AA
:1046E0003268136823F040031360E6E7326813680A
:1046F00023F4005313603268136843F400531360CB
:10470000DFE70020BDE8F08110B584B00446164B09
:104710001868164BA3FB0030400D4FF47A7303FB6F
:1047200000F003906368B3F5827F0BD0039BBBB1AD
:10473000039B013B039323689B6813F0800FF5D123
:1047400000200EE000920B46002280212046FFF759
:1047500091FF30B1636D43F020036365032000E0F7
:10476000002004B010BD00BF58000020819F5E16DD
:1047700000283BD010B504460023836290F85130E6
:10478000002B2ED0022384F851302268136823F0C6
:10479000400313606368A2681343E268134322690D
:1047A000134362691343A26902F400721343E2697E
:1047B0001343226A1343A16A22680B431360638B7D
:1047C00003F00403616A22680B4353602268D369D3
:1047D00023F40063D36100206065012384F8513025
:1047E00010BD80F85030FDF76FFACBE7012070471D
:1047F0002DE9F04383B01F460A9D90F85030012BFD
:1048000000F01081044688469146012380F850301C
:10481000FFF71EFA064694F85130DBB26268012BAE
:104820000AD0B2F5827F40F0E380A268002A40F00F
:10483000E980042B40F0E880B8F1000F00F0E6803A
:10484000B9F1000F00F0E480002F00F0E38094F84D
:104850005130DBB2042B02D0052384F85130002301
:104860006365C4F83890E787A787C4F83080E78687
:10487000A7862364636423681A6812F0400F03D18B
:104880001A6842F040021A60E368B3F5006F11D075
:1048900063680BB1012F0BD1226B236812781A7356
:1048A000236B01332363E38E9BB2013B9BB2E38610
:1048B00001276BE063680BB1012F0BD1226B2368DA
:1048C0001288DA60236B02332363E38E9BB2013BD1
:1048D0009BB2E38601271CE023689A6812F0010F5F
:1048E0000ED0E28F92B25AB1DA68A36B1A80A36B32
:1048F0000233A363E38F9BB2013B9BB2E3870127A3
:10490000FFF7A6F9801BA84203D3B5F1FF3F40F0A3
:104910008380E38E9BB21BB9E38F9BB2002B53D0F5
:1049200023689A6812F0020FD6D0E28E92B2002A63
:10493000D2D0002FD0D0226B1288DA60236B0233E2
:104940002363E38E9BB2013B9BB2E3860027C3E760
:1049500023689A6812F0010F0ED0E28F92B25AB11A
:10496000DA68A36B1A70A36B0133A363E38F9BB266
:10497000013B9BB2E3870127FFF76AF9831BAB4238
:1049800002D3B5F1FF3F49D1002D49D0E38E9BB250
:1049900013B9E38F9BB2BBB123689A6812F0020F80
:1049A000D6D0E28E92B2002AD2D0002FD0D0226B85
:1049B00012781A73236B01332363E38E9BB2013B9E
:1049C0009BB2E3860027C3E7324629462046FFF71D
:1049D0009BFE48B9A36863B901932368DA68019222
:1049E0009B680193019B04E020236365012000E0A4
:1049F0000220012384F85130002384F8503003B0A2
:104A0000BDE8F0830220F4E70220F2E70120F0E79E
:104A10000120EEE70120ECE70320EAE70320E8E7C6
:104A20000320E6E70220EAE730B4036A23F001033B
:104A30000362036A4268846924F0730C0C6844EAD8
:104A40000C0423F0020C8B6843EA0C03114DA842BE
:104A500003D005F58065A84205D123F00803CD6891
:104A60002B4323F004030B4DA84203D005F58065CA
:104A7000A84207D122F440724D6945EA020C8A69C6
:104A800042EA0C02426084614A684263036230BCBD
:104A9000704700BF0000014030B4036A23F4807304
:104AA0000362036A4268C46924F0730C0C6844EA28
:104AB0000C0523F400738C6843EA0423114CA042D4
:104AC00003D004F58064A04206D123F40063CC68CF
:104AD00043EA042323F480630A4CA04203D004F584
:104AE0008064A04207D122F440524C6942EA041289
:104AF0008C6942EA04124260C5614A68C26303627B
:104B000030BC70470000014030B4036A23F4805386
:104B10000362036A4468C26922F4E6420D6842EA0D
:104B2000052223F400538D6843EA0533094DA8425A
:104B300003D005F58065A84204D124F480444D6972
:104B400044EA85144460C2614A680264036230BC6E
:104B5000704700BF0000014010B4036A046A24F0EB
:104B600001040462846924F0F00C4CEA021223F080
:104B70000A030B43826103625DF8044B704710B473
:104B8000036A23F0100303628469036A24F4704CFF
:104B90004CEA023223F0A00343EA0113826103626C
:104BA0005DF8044B7047836823F070030B4343F0B8
:104BB0000703836070470268D36843F00103D36042
:104BC0000268936803F00703062B03D0136843F0D1
:104BD00001031360002070477047704770477047AB
:104BE000704710B5044603681A6912F0020F11D01D
:104BF000DA6812F0020F0DD06FF002021A61012381
:104C0000037703689B6913F0030F70D0FFF7E6FF8B
:104C10000023237723681A6912F0040F12D0DA6890
:104C200012F0040F0ED06FF004021A6102232377F2
:104C300023689B6913F4407F5FD02046FFF7CEFFC7
:104C40000023237723681A6912F0080F12D0DA685C
:104C500012F0080F0ED06FF008021A6104232377B8
:104C60002368DB6913F0030F4ED02046FFF7B6FF31
:104C70000023237723681A6912F0100F12D0DA6824
:104C800012F0100F0ED06FF010021A610823237774
:104C90002368DB6913F4407F3DD02046FFF79EFF79
:104CA0000023237723681A6912F0010F03D0DA6812
:104CB00012F0010F36D123681A6912F0800F03D069
:104CC000DA6812F0800F34D123681A6912F0400FAD
:104CD00003D0DA6812F0400F32D123681A6912F05B
:104CE000200F03D0DA6812F0200F30D110BDFFF78B
:104CF00074FF2046FFF773FF8AE72046FFF76DFF3A
:104D00002046FFF76CFF9BE72046FFF766FF204633
:104D1000FFF765FFACE72046FFF75FFF2046FFF790
:104D20005EFFBDE76FF001021A612046FCF7EAFA68
:104D3000C1E76FF080021A61204600F037FAC3E73E
:104D40006FF040021A612046FFF74AFFC5E76FF097
:104D500020021A61204600F028FAC7E70368304AAB
:104D6000904212D0B0F1804F0FD0A2F57C42904219
:104D70000BD002F58062904207D002F5806290422B
:104D800003D002F57842904203D123F070034A68C1
:104D90001343234A90422AD0B0F1804F27D0A2F586
:104DA0007C42904223D002F5806290421FD002F5EF
:104DB000806290421BD002F57842904217D002F5F3
:104DC0007052904213D002F5806290420FD002F5EB
:104DD000806290420BD0A2F59832904207D002F543
:104DE0008062904203D002F58062904203D123F4A6
:104DF0004073CA68134323F080034A691343036076
:104E00008B68C3620B688362054B984203D003F53D
:104E10008063984201D10B690363012343617047AA
:104E200000000140B0B110B5044690F83D3063B1C8
:104E3000022384F83D30214651F8040BFFF78EFF22
:104E4000012384F83D30002010BD80F83C30FDF790
:104E500035F8EDE701207047B0B110B5044690F881
:104E60003D3063B1022384F83D30214651F8040BF4
:104E7000FFF774FF012384F83D30002010BD80F857
:104E80003C30FFF7A9FEEDE70120704730B4036A1C
:104E900023F010030362036A4468826922F4E64245
:104EA0000D6842EA052223F020038D6843EA0513CA
:104EB000114DA84203D005F58065A84206D123F024
:104EC0008003CD6843EA051323F040030A4DA8424E
:104ED00003D005F58065A84207D124F440644D69EC
:104EE00044EA85048D6944EA8504446082614A6825
:104EF0008263036230BC70470000014038B590F80F
:104F00003C30012B66D004460D46012380F83C302E
:104F1000022380F83D300C2A1AD8DFE802F0071986
:104F20001919201919193419191947000068FFF7C0
:104F30007BFD2268936943F00803936122689369BB
:104F400023F0040393612268936929690B439361F9
:104F5000012384F83D30002084F83C0038BD00680F
:104F6000FFF794FF2268936943F40063936122681A
:104F7000936923F48063936122689369296943EA02
:104F800001239361E4E70068FFF786FD2268D36997
:104F900043F00803D3612268D36923F00403D3618B
:104FA0002268D36929690B43D361D1E70068FFF711
:104FB000ABFD2268D36943F40063D3612268D369EF
:104FC00023F48063D3612268D369296943EA01230A
:104FD000D361BDE70220C1E710B4846824F47F4C9C
:104FE00042EA03220A4342EA0C0282605DF8044B63
:104FF000704790F83C30012B66D010B50446012371
:1050000080F83C30022380F83D300268936823F436
:105010007F4323F0770393600B68602B40D01CD84C
:10502000402B47D00BD9502B33D1CA684968006850
:10503000FFF792FD50212068FFF7B5FD29E0202BF6
:1050400006D003D823B1102B02D022E0302B20D180
:1050500019462068FFF7A7FD1BE0702B0ED0B3F5B3
:10506000005F16D1CB684A6889680068FFF7B4FF13
:105070002268936843F4804393600AE0CB684A68EF
:1050800089680068FFF7A8FF2268936843F07703F8
:105090009360012384F83D30002084F83C0010BD6B
:1050A000CA6849680068FFF76AFD60212068FFF759
:1050B0007AFDEEE7CA6849680068FFF74DFD4021B8
:1050C0002068FFF770FDE4E70220704790F83C206D
:1050D000012A3DD010B40346012280F83C20022270
:1050E00080F83D2002685068946820F0700C0868D1
:1050F00040EA0C0050601A68164882421AD0B2F199
:10510000804F17D0A0F57C40824213D000F580601C
:1051100082420FD000F5806082420BD000F57840CB
:10512000824207D000F57050824203D0A0F594303F
:10513000824204D124F08004496821439160012215
:1051400083F83D20002083F83C005DF8044B704755
:105150000220704700000140024690F83C30012BCD
:1051600021D0012380F83C30CB6823F44073886859
:10517000034323F480634868034323F4006308680F
:10518000034323F480530869034323F4005348691D
:10519000034323F48043C9690B4311684B64002027
:1051A00082F83C007047022070477047704700004B
:1051B00010B504460268136923F44053C1680B43D9
:1051C0001361836802691A4343691A43C3691A4326
:1051D0000168CB6823F4164323F00C031343CB6020
:1051E0000268536923F4407381690B435361C369B7
:1051F000B3F5004F35D00368604A934200F09180C8
:1052000002F58062934200F08C80FEF78BF900215A
:10521000031849411B1841F10001C90041EA5371CB
:10522000DB00181863684FEA83024FEA937341F179
:105230000001FBF797FF524AA2FB003149096423A2
:1052400003FB11031B013233A2FB03235B0903F0B1
:10525000F00202EB011203F00F03216813448B608C
:105260008AE00368454A93422FD002F58062934258
:105270002BD0FEF757F90023021843EB0301121855
:1052800041F10001C90041EA5271D200101841F108
:105290000001626892185B41FBF764FF384AA2FB89
:1052A00000314909642303FB1103DB003233A2FB05
:1052B00003235B095A0002F4F87202EB011203F0B7
:1052C0000703216813448B6056E0FEF73BF9002387
:1052D000021843EB0301121841F10001C90041EA31
:1052E0005271D200101841F10001626892185B41BE
:1052F000FBF738FF224AA2FB00314909642303FB74
:105300001103DB003233A2FB03235B095A0002F4D2
:10531000F87202EB011203F00703216813448B605B
:105320002AE0FEF70FF90021031849411B1841F14B
:105330000001C90041EA5371DB00181863684FEAA5
:1053400083024FEA937341F10001FBF70BFF0C4A14
:10535000A2FB00314909642303FB11031B01323313
:10536000A2FB03235B0903F0F00202EB011203F03E
:105370000F03216813448B6010BD00BF0010014073
:105380001F85EB5158B310B5044690F839300BB374
:10539000242384F839302268D36823F40053D3607F
:1053A0002046FFF705FF2268136923F49043136139
:1053B0002268536923F02A0353612268D36843F4B7
:1053C0000053D3600020E063202384F8393084F850
:1053D0003A3010BD80F83830FDF7ECF8D8E70120FE
:1053E00070477047054BD3F8882042F47002C3F829
:1053F00088204FF000629A60704700BF00ED00E027
:1054000000F1080343604FF0FF328260C360036124
:1054100000230360704700230361704743684B60BB
:105420009A688A605160996008610368013303607B
:10543000704730B40D68B5F1FF3F11D000F108039B
:105440001C465B681A68AA42FAD963684B60996087
:105450008C606160086103680133036030BC704791
:105460000469F2E70369416882688A6041685160B3
:105470005A68824206D0002202611A68013A1A6014
:105480001868704782685A60F5E710B5044601F065
:1054900059FCA26BE36B9A4204D0002401F074FC27
:1054A000204610BD0124F9E710B5044601F04AFC7E
:1054B000A36B23B9012401F067FC204610BD002432
:1054C000F9E770B504461546866B026C5AB9036855
:1054D0001BB100200136A66370BD806800F0ECFFB0
:1054E0000023A360F6E76DB94068FAF7D1FE636860
:1054F000226C13446360A268934219D323686360EB
:105500002846E7E7C068FAF7C3FEE368226C514219
:105510009B1AE3602268934202D2A3680B44E360C3
:10552000022D01D00020D5E726B1013E0020D1E7B1
:105530002846CFE70020CDE70346026C6AB110B5DC
:105540000846D9681144D9609C68A14201D3196802
:10555000D960D968FAF79CFE10BD704738B505468A
:1055600001F0F0FB95F8454064B201E0013C64B203
:10557000002C0ADD6B6A43B105F1240000F0E4FE63
:105580000028F3D000F082FFF0E7FF2385F84530D4
:1055900001F0FAFB01F0D6FB95F8444064B201E05B
:1055A000013C64B2002C0ADD2B6943B105F1100007
:1055B00000F0CAFE0028F3D000F068FFF0E7FF23F8
:1055C00085F8443001F0E0FB38BD38B5E0B10D4658
:1055D000044601F0B7FB2368E26B216C01FB02304B
:1055E000A0600020A0636360013A02FB0133E36026
:1055F000FF2384F8443084F84530FDB9236963B94A
:1056000001F0C2FB012038BD4FF0500383F3118835
:10561000BFF36F8FBFF34F8FFEE704F1100000F070
:1056200093FE0028ECD04FF0E0234FF08052C3F8F7
:10563000042DBFF34F8FBFF36F8FE1E704F110002C
:10564000FFF7DEFE04F12400FFF7DAFED8E710B51D
:10565000034602980C4631B90060C363046401211B
:10566000FFF7B3FF10BD0260F7E740B94FF05003FA
:1056700083F31188BFF36F8FBFF34F8FFEE710B531
:1056800084B01C46844653B192B189B94FF050039F
:1056900083F31188BFF36F8FBFF34F8FFEE74FF097
:1056A000500383F31188BFF36F8FBFF34F8FFEE773
:1056B0006AB148230393039B482B13D04FF0500348
:1056C00083F31188BFF36F8FBFF34F8FFEE700297D
:1056D000EFD04FF0500383F31188BFF36F8FBFF308
:1056E0004F8FFEE7039B012384F8463000949DF81A
:1056F00018306046FFF7ABFF204604B010BDF0B590
:1057000085B0019288B10F461D460446B1B1022D05
:1057100020D1E36B012B1DD04FF0500383F3118890
:10572000BFF36F8FBFF34F8FFEE74FF0500383F34C
:105730001188BFF36F8FBFF34F8FFEE7036C002B11
:10574000E5D04FF0500383F31188BFF36F8FBFF3A1
:105750004F8FFEE700F0A0FE064658B9019B002BD4
:1057600048D04FF0500383F31188BFF36F8FBFF31E
:105770004F8FFEE700263DE02A4639462046FFF7D8
:10578000A0FE636A7BB948B14FF0E0234FF080522E
:10579000C3F8042DBFF34F8FBFF36F8F01F0F4FAFE
:1057A000012005B0F0BD04F1240000F0CDFD00287B
:1057B000F4D04FF0E0234FF08052C3F8042DBFF334
:1057C0004F8FBFF36F8FE9E701F0DEFA0020E8E7C3
:1057D00002A800F0FFFD012619E0002384F8443000
:1057E00021E0002384F8453023E02046FFF7B6FE91
:1057F00000F088FC01F0A6FAA26BE36B9A42BBD3DF
:10580000022DB9D0019B002BDED0002EE0D001F09C
:10581000BBFA00F0DDFB01F095FA94F8442052B297
:10582000B2F1FF3FD9D094F8452052B2B2F1FF3F18
:10583000D7D001F0A9FA01A902A800F0D7FDD8B984
:105840002046FFF722FE0028CFD0019904F1100076
:1058500000F046FD2046FFF781FE00F053FC0028D3
:10586000C8D14FF0E0234FF08052C3F8042DBFF3AE
:105870004F8FBFF36F8FBDE72046FFF76FFE00F03D
:1058800041FC00208DE72DE9F84390B10F46164604
:105890001C460546B1B1022C20D1EB6B012B1DD06B
:1058A0004FF0500383F31188BFF36F8FBFF34F8F17
:1058B000FEE74FF0500383F31188BFF36F8FBFF300
:1058C0004F8FFEE7036C002BE5D04FF0500383F3BE
:1058D0001188BFF36F8FBFF34F8FFEE701F058FBC6
:1058E000EFF311884FF0500383F31188BFF36F8FEC
:1058F000BFF34F8FAA6BEB6B9A4206D3022C04D0F6
:10590000002088F31188BDE8F88395F845904FFA98
:1059100089F9224639462846FFF7D3FDB9F1FF3F02
:1059200006D009F101035BB285F845300120E8E7B4
:105930006B6A0BB90120E4E705F1240000F004FDD7
:1059400018B126B101203060DBE70120D9E7012042
:10595000D7E7F0B585B0019290B10F460446C1B1CA
:1059600000F09AFD064600BB019B002B5ED04FF075
:10597000500383F31188BFF36F8FBFF34F8FFEE7A0
:105980004FF0500383F31188BFF36F8FBFF34F8F36
:10599000FEE7036C002BE3D04FF0500383F3118834
:1059A000BFF36F8FBFF34F8FFEE700263EE039460F
:1059B0002046FFF7C1FD013DA563236923B901F02E
:1059C000E3F9012005B0F0BD04F1100000F0BCFCCB
:1059D0000028F4D04FF0E0234FF08052C3F8042D9C
:1059E000BFF34F8FBFF36F8FE9E701F0CDF90020D0
:1059F000E8E702A800F0EEFC012621E0002384F88D
:105A0000443029E0002384F845302BE02046FFF79E
:105A1000A5FD00F077FB09E02046FFF79FFD00F0B1
:105A200071FB2046FFF740FD00283FD101F08AF9C5
:105A3000A56B002DBBD1019B002BD6D0002ED8D05A
:105A400001F0A2F900F0C4FA01F07CF994F84430B6
:105A50005BB2B3F1FF3FD1D094F845305BB2B3F104
:105A6000FF3FCFD001F090F901A902A800F0BEFCE1
:105A70000028D1D12046FFF717FD0028C6D0019994
:105A800004F1240000F02CFC2046FFF767FD00F035
:105A900039FB0028CAD14FF0E0234FF08052C3F801
:105AA000042DBFF34F8FBFF36F8FBFE7002089E74F
:105AB0000023072B0CD8074A52F833200AB10133D0
:105AC000F7E7044A42F8331002EBC3025060704714
:105AD000704700BF3811002070B504460D461646C9
